{
  "contractName": "Amsterdam",
  "abi": [
    {
      "constant": true,
      "inputs": [
        {
          "name": "",
          "type": "uint256"
        }
      ],
      "name": "entries",
      "outputs": [
        {
          "name": "id",
          "type": "uint256"
        },
        {
          "name": "unlockTime",
          "type": "uint256"
        },
        {
          "name": "owner",
          "type": "address"
        },
        {
          "name": "ipfs",
          "type": "string"
        },
        {
          "name": "title",
          "type": "string"
        },
        {
          "name": "descrip",
          "type": "string"
        }
      ],
      "payable": false,
      "stateMutability": "view",
      "type": "function"
    },
    {
      "inputs": [],
      "payable": false,
      "stateMutability": "nonpayable",
      "type": "constructor"
    },
    {
      "anonymous": false,
      "inputs": [
        {
          "indexed": true,
          "name": "_owner",
          "type": "address"
        },
        {
          "indexed": false,
          "name": "_key",
          "type": "string"
        },
        {
          "indexed": false,
          "name": "_ipfs",
          "type": "string"
        }
      ],
      "name": "EvtRelease",
      "type": "event"
    },
    {
      "anonymous": false,
      "inputs": [
        {
          "indexed": true,
          "name": "id",
          "type": "uint256"
        }
      ],
      "name": "EvtEntryAppended",
      "type": "event"
    },
    {
      "constant": false,
      "inputs": [
        {
          "name": "_unlockTime",
          "type": "uint256"
        },
        {
          "name": "_ipfs",
          "type": "string"
        },
        {
          "name": "_title",
          "type": "string"
        },
        {
          "name": "_description",
          "type": "string"
        },
        {
          "name": "_file",
          "type": "string"
        }
      ],
      "name": "appendEntry",
      "outputs": [],
      "payable": false,
      "stateMutability": "nonpayable",
      "type": "function"
    },
    {
      "constant": false,
      "inputs": [
        {
          "name": "_id",
          "type": "uint256"
        }
      ],
      "name": "release",
      "outputs": [],
      "payable": false,
      "stateMutability": "nonpayable",
      "type": "function"
    },
    {
      "constant": false,
      "inputs": [
        {
          "name": "_id",
          "type": "uint256"
        }
      ],
      "name": "eventTest",
      "outputs": [],
      "payable": false,
      "stateMutability": "nonpayable",
      "type": "function"
    },
    {
      "constant": true,
      "inputs": [
        {
          "name": "_id",
          "type": "uint256"
        }
      ],
      "name": "getIPFS",
      "outputs": [
        {
          "name": "x",
          "type": "string"
        }
      ],
      "payable": false,
      "stateMutability": "view",
      "type": "function"
    },
    {
      "constant": true,
      "inputs": [],
      "name": "getTotalEnteries",
      "outputs": [
        {
          "name": "x",
          "type": "uint256"
        }
      ],
      "payable": false,
      "stateMutability": "view",
      "type": "function"
    },
    {
      "constant": true,
      "inputs": [
        {
          "name": "_id",
          "type": "uint256"
        }
      ],
      "name": "getDescrip",
      "outputs": [
        {
          "name": "x",
          "type": "string"
        }
      ],
      "payable": false,
      "stateMutability": "view",
      "type": "function"
    },
    {
      "constant": true,
      "inputs": [
        {
          "name": "_id",
          "type": "uint256"
        }
      ],
      "name": "getTitle",
      "outputs": [
        {
          "name": "x",
          "type": "string"
        }
      ],
      "payable": false,
      "stateMutability": "view",
      "type": "function"
    },
    {
      "constant": true,
      "inputs": [
        {
          "name": "_id",
          "type": "uint256"
        }
      ],
      "name": "getUnlockTime",
      "outputs": [
        {
          "name": "x",
          "type": "uint256"
        }
      ],
      "payable": false,
      "stateMutability": "view",
      "type": "function"
    }
  ],
  "bytecode": "0x608060405234801561001057600080fd5b50336000806101000a81548173ffffffffffffffffffffffffffffffffffffffff021916908373ffffffffffffffffffffffffffffffffffffffff16021790555061112f806100606000396000f300608060405260043610610099576000357c0100000000000000000000000000000000000000000000000000000000900463ffffffff1680631c73620b1461009e57806337bdc99b146101e3578063929a79b11461021057806394fb3d29146102b6578063b21536e6146102e3578063b30906d414610324578063d1ae8cb6146104e3578063e1e8974e1461050e578063e4da28f3146105b4575b600080fd5b3480156100aa57600080fd5b506101e160048036038101908080359060200190929190803590602001908201803590602001908080601f0160208091040260200160405190810160405280939291908181526020018383808284378201915050505050509192919290803590602001908201803590602001908080601f0160208091040260200160405190810160405280939291908181526020018383808284378201915050505050509192919290803590602001908201803590602001908080601f0160208091040260200160405190810160405280939291908181526020018383808284378201915050505050509192919290803590602001908201803590602001908080601f016020809104026020016040519081016040528093929190818152602001838380828437820191505050505050919291929050505061065a565b005b3480156101ef57600080fd5b5061020e600480360381019080803590602001909291905050506107be565b005b34801561021c57600080fd5b5061023b600480360381019080803590602001909291905050506109a0565b6040518080602001828103825283818151815260200191508051906020019080838360005b8381101561027b578082015181840152602081019050610260565b50505050905090810190601f1680156102a85780820380516001836020036101000a031916815260200191505b509250505060405180910390f35b3480156102c257600080fd5b506102e160048036038101908080359060200190929190505050610a58565b005b3480156102ef57600080fd5b5061030e60048036038101908080359060200190929190505050610c15565b6040518082815260200191505060405180910390f35b34801561033057600080fd5b5061034f60048036038101908080359060200190929190505050610c35565b604051808781526020018681526020018573ffffffffffffffffffffffffffffffffffffffff1673ffffffffffffffffffffffffffffffffffffffff168152602001806020018060200180602001848103845287818151815260200191508051906020019080838360005b838110156103d55780820151818401526020810190506103ba565b50505050905090810190601f1680156104025780820380516001836020036101000a031916815260200191505b50848103835286818151815260200191508051906020019080838360005b8381101561043b578082015181840152602081019050610420565b50505050905090810190601f1680156104685780820380516001836020036101000a031916815260200191505b50848103825285818151815260200191508051906020019080838360005b838110156104a1578082015181840152602081019050610486565b50505050905090810190601f1680156104ce5780820380516001836020036101000a031916815260200191505b50995050505050505050505060405180910390f35b3480156104ef57600080fd5b506104f8610e59565b6040518082815260200191505060405180910390f35b34801561051a57600080fd5b5061053960048036038101908080359060200190929190505050610e63565b6040518080602001828103825283818151815260200191508051906020019080838360005b8381101561057957808201518184015260208101905061055e565b50505050905090810190601f1680156105a65780820380516001836020036101000a031916815260200191505b509250505060405180910390f35b3480156105c057600080fd5b506105df60048036038101908080359060200190929190505050610f1b565b6040518080602001828103825283818151815260200191508051906020019080838360005b8381101561061f578082015181840152602081019050610604565b50505050905090810190601f16801561064c5780820380516001836020036101000a031916815260200191505b509250505060405180910390f35b60036000815480929190600101919050555060c06040519081016040528060035481526020018681526020013373ffffffffffffffffffffffffffffffffffffffff16815260200185815260200184815260200183815250600160006003548152602001908152602001600020600082015181600001556020820151816001015560408201518160020160006101000a81548173ffffffffffffffffffffffffffffffffffffffff021916908373ffffffffffffffffffffffffffffffffffffffff160217905550606082015181600301908051906020019061073e92919061105e565b50608082015181600401908051906020019061075b92919061105e565b5060a082015181600501908051906020019061077892919061105e565b5090505061078860035482610fd3565b6003547f7fcf60e444abde6a76bff87cbe429f1a358ce3ea698293a0c38f26f018890e1e60405160405180910390a25050505050565b600160008281526020019081526020016000206001015442101515156107e357600080fd5b6001600082815260200190815260200160002060020160009054906101000a900473ffffffffffffffffffffffffffffffffffffffff1673ffffffffffffffffffffffffffffffffffffffff167fcd782588760c329e3732b6a6077ce7ecbac68e9982f159cbdb3d87cdf6fe3396600260008481526020019081526020016000206001016001600085815260200190815260200160002060030160405180806020018060200183810383528581815460018160011615610100020316600290048152602001915080546001816001161561010002031660029004801561090a5780601f106108df5761010080835404028352916020019161090a565b820191906000526020600020905b8154815290600101906020018083116108ed57829003601f168201915b505083810382528481815460018160011615610100020316600290048152602001915080546001816001161561010002031660029004801561098d5780601f106109625761010080835404028352916020019161098d565b820191906000526020600020905b81548152906001019060200180831161097057829003601f168201915b505094505050505060405180910390a250565b6060600160008381526020019081526020016000206004018054600181600116156101000203166002900480601f016020809104026020016040519081016040528092919081815260200182805460018160011615610100020316600290048015610a4c5780601f10610a2157610100808354040283529160200191610a4c565b820191906000526020600020905b815481529060010190602001808311610a2f57829003601f168201915b50505050509050919050565b6001600082815260200190815260200160002060020160009054906101000a900473ffffffffffffffffffffffffffffffffffffffff1673ffffffffffffffffffffffffffffffffffffffff167fcd782588760c329e3732b6a6077ce7ecbac68e9982f159cbdb3d87cdf6fe33966002600084815260200190815260200160002060010160016000858152602001908152602001600020600301604051808060200180602001838103835285818154600181600116156101000203166002900481526020019150805460018160011615610100020316600290048015610b7f5780601f10610b5457610100808354040283529160200191610b7f565b820191906000526020600020905b815481529060010190602001808311610b6257829003601f168201915b5050838103825284818154600181600116156101000203166002900481526020019150805460018160011615610100020316600290048015610c025780601f10610bd757610100808354040283529160200191610c02565b820191906000526020600020905b815481529060010190602001808311610be557829003601f168201915b505094505050505060405180910390a250565b600060016000838152602001908152602001600020600101549050919050565b60016020528060005260406000206000915090508060000154908060010154908060020160009054906101000a900473ffffffffffffffffffffffffffffffffffffffff1690806003018054600181600116156101000203166002900480601f016020809104026020016040519081016040528092919081815260200182805460018160011615610100020316600290048015610d135780601f10610ce857610100808354040283529160200191610d13565b820191906000526020600020905b815481529060010190602001808311610cf657829003601f168201915b505050505090806004018054600181600116156101000203166002900480601f016020809104026020016040519081016040528092919081815260200182805460018160011615610100020316600290048015610db15780601f10610d8657610100808354040283529160200191610db1565b820191906000526020600020905b815481529060010190602001808311610d9457829003601f168201915b505050505090806005018054600181600116156101000203166002900480601f016020809104026020016040519081016040528092919081815260200182805460018160011615610100020316600290048015610e4f5780601f10610e2457610100808354040283529160200191610e4f565b820191906000526020600020905b815481529060010190602001808311610e3257829003601f168201915b5050505050905086565b6000600354905090565b6060600160008381526020019081526020016000206003018054600181600116156101000203166002900480601f016020809104026020016040519081016040528092919081815260200182805460018160011615610100020316600290048015610f0f5780601f10610ee457610100808354040283529160200191610f0f565b820191906000526020600020905b815481529060010190602001808311610ef257829003601f168201915b50505050509050919050565b6060600160008381526020019081526020016000206005018054600181600116156101000203166002900480601f016020809104026020016040519081016040528092919081815260200182805460018160011615610100020316600290048015610fc75780601f10610f9c57610100808354040283529160200191610fc7565b820191906000526020600020905b815481529060010190602001808311610faa57829003601f168201915b50505050509050919050565b60408051908101604052808381526020016040805190810160405280600b81526020017f70726976617465206b65790000000000000000000000000000000000000000008152508152506002600084815260200190815260200160002060008201518160000155602082015181600101908051906020019061105692919061105e565b509050505050565b828054600181600116156101000203166002900490600052602060002090601f016020900481019282601f1061109f57805160ff19168380011785556110cd565b828001600101855582156110cd579182015b828111156110cc5782518255916020019190600101906110b1565b5b5090506110da91906110de565b5090565b61110091905b808211156110fc5760008160009055506001016110e4565b5090565b905600a165627a7a7230582002637afc52922a4a09d38f0e86ac059335fbffd32a4cb2162381b1853ea45d7e0029",
  "source": "pragma solidity ^0.4.19;\n\ncontract ownable {\n    address owner;\n    modifier onlyOwner() {\n        require(msg.sender == owner);\n        _;\n    }\n    function ownable() public {\n        owner = msg.sender;\n    }\n}\n\ncontract Amsterdam is ownable {\n\n  // custom types\n  struct Entry {\n    uint id;\n    uint unlockTime;\n    address owner;\n    string ipfs;\n    string title;\n    string descrip;\n  }\n  \n  struct PK {\n      uint id;\n      string key;\n  }\n\n  // state variables\n  mapping (uint => Entry) public entries;\n  mapping (uint => PK) private privateKeys;\n  uint counter;\n\n  // Event declaration\n  event EvtRelease(\n    address indexed _owner,\n    string _key,\n    string _ipfs\n  );\n\n  event EvtEntryAppended(\n    uint indexed id\n  );\n    \n  function Amsterdam() public {\n  }\n\n  // add an entry to the blockchain\n  function appendEntry(uint _unlockTime, string _ipfs, string _title, string _description, string _file) public {\n    // a new entry\n    counter++;\n\n    // adding info to Entry struct\n    entries[counter] = Entry(\n        counter,\n        _unlockTime,\n        msg.sender,\n        _ipfs,\n        _title,\n        _description\n        );\n        \n        \n    // encrypt the file and return the private key \n   encryptEntry(counter, _file);\n\n   EvtEntryAppended(counter);\n   \n  }\n  \n  function encryptEntry(uint _id, string _file) private {\n      // magic\n      privateKeys[_id] = PK(\n          _id,\n          \"private key\"\n          );\n    }\n  \n  function release(uint _id) public {\n    // check if it is time to release\n    require(now >= entries[_id].unlockTime);\n    // trigger an event\n    EvtRelease(entries[_id].owner, privateKeys[_id].key, entries[_id].ipfs);\n  }\n\n  function eventTest(uint _id) public {\n    EvtRelease(entries[_id].owner, privateKeys[_id].key, entries[_id].ipfs);\n  }\n\n\n  // some getter functions\n  \n  function getIPFS(uint _id) constant public returns (string x) {\n      return entries[_id].ipfs;\n  }\n  \n  function getTotalEnteries() public view returns (uint x){\n      return counter;\n  }\n  \n  function getDescrip(uint _id) constant public returns (string x) {\n    return entries[_id].descrip;\n  }\n  \n  function getTitle(uint _id) constant public returns (string x) {\n      return entries[_id].title;\n  }\n\n  function getUnlockTime(uint _id) constant public returns(uint x) {\n      return entries[_id].unlockTime;\n  }\n\n}\n",
  "sourcePath": "/Users/Skylar/Developer/Hackital/memoir/client/contracts/Amsterdam.sol",
  "compiler": {
    "name": "solc",
    "version": "0.4.23+commit.124ca40d.Emscripten.clang"
  },
  "schemaVersion": "2.0.0",
  "updatedAt": "2018-04-28T19:25:04.159Z"
}