{
  "contractName": "Amsterdam",
  "abi": [
    {
      "constant": true,
      "inputs": [
        {
          "name": "",
          "type": "uint256"
        }
      ],
      "name": "entries",
      "outputs": [
        {
          "name": "id",
          "type": "uint256"
        },
        {
          "name": "unlockTime",
          "type": "uint256"
        },
        {
          "name": "owner",
          "type": "address"
        },
        {
          "name": "key",
          "type": "string"
        },
        {
          "name": "ipfs",
          "type": "string"
        },
        {
          "name": "descrip",
          "type": "string"
        }
      ],
      "payable": false,
      "stateMutability": "view",
      "type": "function"
    },
    {
      "inputs": [
        {
          "name": "_unlockTime",
          "type": "uint256"
        },
        {
          "name": "_key",
          "type": "string"
        },
        {
          "name": "_ipfs",
          "type": "string"
        },
        {
          "name": "_description",
          "type": "string"
        }
      ],
      "payable": false,
      "stateMutability": "nonpayable",
      "type": "constructor"
    },
    {
      "anonymous": false,
      "inputs": [
        {
          "indexed": true,
          "name": "_owner",
          "type": "address"
        },
        {
          "indexed": true,
          "name": "_key",
          "type": "string"
        },
        {
          "indexed": true,
          "name": "_ipfs",
          "type": "string"
        }
      ],
      "name": "EvtRelease",
      "type": "event"
    },
    {
      "constant": false,
      "inputs": [],
      "name": "appendEntry",
      "outputs": [],
      "payable": false,
      "stateMutability": "nonpayable",
      "type": "function"
    },
    {
      "constant": false,
      "inputs": [
        {
          "name": "_id",
          "type": "uint256"
        }
      ],
      "name": "release",
      "outputs": [],
      "payable": false,
      "stateMutability": "nonpayable",
      "type": "function"
    },
    {
      "constant": true,
      "inputs": [
        {
          "name": "_id",
          "type": "uint256"
        }
      ],
      "name": "getDescrip",
      "outputs": [
        {
          "name": "x",
          "type": "string"
        }
      ],
      "payable": false,
      "stateMutability": "view",
      "type": "function"
    },
    {
      "constant": true,
      "inputs": [
        {
          "name": "_id",
          "type": "uint256"
        }
      ],
      "name": "getCountDown",
      "outputs": [
        {
          "name": "x",
          "type": "uint256"
        }
      ],
      "payable": false,
      "stateMutability": "view",
      "type": "function"
    },
    {
      "constant": true,
      "inputs": [],
      "name": "getNow",
      "outputs": [
        {
          "name": "x",
          "type": "uint256"
        }
      ],
      "payable": false,
      "stateMutability": "view",
      "type": "function"
    },
    {
      "constant": true,
      "inputs": [
        {
          "name": "_id",
          "type": "uint256"
        }
      ],
      "name": "getUnlockTime",
      "outputs": [
        {
          "name": "x",
          "type": "uint256"
        }
      ],
      "payable": false,
      "stateMutability": "view",
      "type": "function"
    }
  ],
  "bytecode": "0x60806040526000600960006101000a81548160ff02191690831515021790555034801561002b57600080fd5b50604051610d0b380380610d0b83398101806040528101908080519060200190929190805182019291906020018051820192919060200180518201929190505050336000806101000a81548173ffffffffffffffffffffffffffffffffffffffff021916908373ffffffffffffffffffffffffffffffffffffffff160217905550834201600180018190555082600160030190805190602001906100d092919061010e565b5081600160040190805190602001906100ea92919061010e565b50806001600501908051906020019061010492919061010e565b50505050506101b3565b828054600181600116156101000203166002900490600052602060002090601f016020900481019282601f1061014f57805160ff191683800117855561017d565b8280016001018555821561017d579182015b8281111561017c578251825591602001919060010190610161565b5b50905061018a919061018e565b5090565b6101b091905b808211156101ac576000816000905550600101610194565b5090565b90565b610b49806101c26000396000f300608060405260043610610083576000357c0100000000000000000000000000000000000000000000000000000000900463ffffffff16806329edc91a1461008857806337bdc99b1461009f57806386fadfa2146100cc578063b21536e61461010d578063b30906d41461014e578063bbe4fd501461030d578063e4da28f314610338575b600080fd5b34801561009457600080fd5b5061009d6103de565b005b3480156100ab57600080fd5b506100ca6004803603810190808035906020019092919050505061054f565b005b3480156100d857600080fd5b506100f760048036038101908080359060200190929190505050610723565b6040518082815260200191505060405180910390f35b34801561011957600080fd5b506101386004803603810190808035906020019092919050505061076d565b6040518082815260200191505060405180910390f35b34801561015a57600080fd5b506101796004803603810190808035906020019092919050505061078d565b604051808781526020018681526020018573ffffffffffffffffffffffffffffffffffffffff1673ffffffffffffffffffffffffffffffffffffffff168152602001806020018060200180602001848103845287818151815260200191508051906020019080838360005b838110156101ff5780820151818401526020810190506101e4565b50505050905090810190601f16801561022c5780820380516001836020036101000a031916815260200191505b50848103835286818151815260200191508051906020019080838360005b8381101561026557808201518184015260208101905061024a565b50505050905090810190601f1680156102925780820380516001836020036101000a031916815260200191505b50848103825285818151815260200191508051906020019080838360005b838110156102cb5780820151818401526020810190506102b0565b50505050905090810190601f1680156102f85780820380516001836020036101000a031916815260200191505b50995050505050505050505060405180910390f35b34801561031957600080fd5b506103226109b1565b6040518082815260200191505060405180910390f35b34801561034457600080fd5b50610363600480360381019080803590602001909291905050506109b9565b6040518080602001828103825283818151815260200191508051906020019080838360005b838110156103a3578082015181840152602081019050610388565b50505050905090810190601f1680156103d05780820380516001836020036101000a031916815260200191505b509250505060405180910390f35b60086000815480929190600101919050555060085460016000018190555033600160020160006101000a81548173ffffffffffffffffffffffffffffffffffffffff021916908373ffffffffffffffffffffffffffffffffffffffff160217905550600160076000600854815260200190815260200160002060008201548160000155600182015481600101556002820160009054906101000a900473ffffffffffffffffffffffffffffffffffffffff168160020160006101000a81548173ffffffffffffffffffffffffffffffffffffffff021916908373ffffffffffffffffffffffffffffffffffffffff160217905550600382018160030190805460018160011615610100020316600290046104f9929190610a71565b5060048201816004019080546001816001161561010002031660029004610521929190610a71565b5060058201816005019080546001816001161561010002031660029004610549929190610a71565b50905050565b6007600082815260200190815260200160002060010154421015151561057457600080fd5b600960009054906101000a900460ff1615151561059057600080fd5b6001600960006101000a81548160ff02191690831515021790555060076000828152602001908152602001600020600401604051808280546001816001161561010002031660029004801561061c5780601f106105fa57610100808354040283529182019161061c565b820191906000526020600020905b815481529060010190602001808311610608575b5050915050604051809103902060076000838152602001908152602001600020600301604051808280546001816001161561010002031660029004801561069a5780601f1061067857610100808354040283529182019161069a565b820191906000526020600020905b815481529060010190602001808311610686575b505091505060405180910390206007600084815260200190815260200160002060020160009054906101000a900473ffffffffffffffffffffffffffffffffffffffff1673ffffffffffffffffffffffffffffffffffffffff167fcd782588760c329e3732b6a6077ce7ecbac68e9982f159cbdb3d87cdf6fe339660405160405180910390a450565b6000426007600084815260200190815260200160002060010154111561076357426007600084815260200190815260200160002060010154039050610768565b600090505b919050565b600060076000838152602001908152602001600020600101549050919050565b60076020528060005260406000206000915090508060000154908060010154908060020160009054906101000a900473ffffffffffffffffffffffffffffffffffffffff1690806003018054600181600116156101000203166002900480601f01602080910402602001604051908101604052809291908181526020018280546001816001161561010002031660029004801561086b5780601f106108405761010080835404028352916020019161086b565b820191906000526020600020905b81548152906001019060200180831161084e57829003601f168201915b505050505090806004018054600181600116156101000203166002900480601f0160208091040260200160405190810160405280929190818152602001828054600181600116156101000203166002900480156109095780601f106108de57610100808354040283529160200191610909565b820191906000526020600020905b8154815290600101906020018083116108ec57829003601f168201915b505050505090806005018054600181600116156101000203166002900480601f0160208091040260200160405190810160405280929190818152602001828054600181600116156101000203166002900480156109a75780601f1061097c576101008083540402835291602001916109a7565b820191906000526020600020905b81548152906001019060200180831161098a57829003601f168201915b5050505050905086565b600042905090565b6060600760008381526020019081526020016000206005018054600181600116156101000203166002900480601f016020809104026020016040519081016040528092919081815260200182805460018160011615610100020316600290048015610a655780601f10610a3a57610100808354040283529160200191610a65565b820191906000526020600020905b815481529060010190602001808311610a4857829003601f168201915b50505050509050919050565b828054600181600116156101000203166002900490600052602060002090601f016020900481019282601f10610aaa5780548555610ae7565b82800160010185558215610ae757600052602060002091601f016020900482015b82811115610ae6578254825591600101919060010190610acb565b5b509050610af49190610af8565b5090565b610b1a91905b80821115610b16576000816000905550600101610afe565b5090565b905600a165627a7a72305820a9df7a5ace3ed73f05e100bdc2f90f5874ca808d72f8dd4355c356e5b506d01a0029",
  "source": "pragma solidity ^0.4.19;\n\nimport \"./ownable.sol\";\n\ncontract Amsterdam is ownable {\n\n  // custom types\n  struct Entry {\n    uint id;\n    uint unlockTime;\n    address owner;\n    string key;\n    string ipfs;\n    string descrip;\n  }\n\n  Entry thisEntry;\n\n  // state variables\n  mapping (uint => Entry) public entries;\n  uint counter;\n  bool released = false;\n\n  // Event declaration\n  event EvtRelease(address indexed _owner, string indexed _key, string indexed _ipfs);\n\n  function Amsterdam(uint _unlockTime, string _key, string _ipfs, string _description) public {\n     thisEntry.unlockTime = now + _unlockTime;\n     thisEntry.key = _key;\n     thisEntry.ipfs = _ipfs;\n     thisEntry.descrip = _description;\n  }\n\n  // add an entry to the blockchain\n  function appendEntry() public {\n    // a new entry\n    counter++;\n\n    // adding info to constructor\n    thisEntry.id = counter;\n    thisEntry.owner = msg.sender;\n\n    // store this entry\n    entries[counter] = thisEntry;\n  }\n\n\n  function release(uint _id) public {\n    // check if it is time to release\n    require(now >= entries[_id].unlockTime);\n    // the function has already been called\n    require(!released);\n\n    // now change value\n    released = true;\n    // trigger an event\n    EvtRelease(entries[_id].owner, entries[_id].key, entries[_id].ipfs);\n  }\n\n  // some getter functions\n  function getDescrip(uint _id) constant public returns (string x) {\n    return entries[_id].descrip;\n  }\n\n  function getCountDown(uint _id) constant public returns (uint x) {\n    if (entries[_id].unlockTime > now) {\n        return (entries[_id].unlockTime - now);\n    } else {\n        return 0;\n    }\n  }\n\n  function getNow() constant public returns (uint x) {\n    return now;\n  }\n\n  function getUnlockTime(uint _id) constant public returns(uint x) {\n      return entries[_id].unlockTime;\n  }\n}\n",
  "sourcePath": "/Users/Skylar/Developer/Hackital/memoir/client/contracts/Amsterdam.sol",
  "compiler": {
    "name": "solc",
    "version": "0.4.23+commit.124ca40d.Emscripten.clang"
  },
  "schemaVersion": "2.0.0",
  "updatedAt": "2018-04-28T15:23:50.449Z"
}