{
  "contractName": "Amsterdam",
  "abi": [
    {
      "constant": true,
      "inputs": [
        {
          "name": "",
          "type": "uint256"
        }
      ],
      "name": "entries",
      "outputs": [
        {
          "name": "id",
          "type": "uint256"
        },
        {
          "name": "unlockTime",
          "type": "uint256"
        },
        {
          "name": "owner",
          "type": "address"
        },
        {
          "name": "ipfs",
          "type": "string"
        },
        {
          "name": "title",
          "type": "string"
        },
        {
          "name": "descrip",
          "type": "string"
        },
        {
          "name": "entryType",
          "type": "uint256"
        }
      ],
      "payable": false,
      "stateMutability": "view",
      "type": "function"
    },
    {
      "inputs": [],
      "payable": false,
      "stateMutability": "nonpayable",
      "type": "constructor"
    },
    {
      "anonymous": false,
      "inputs": [
        {
          "indexed": true,
          "name": "_owner",
          "type": "address"
        },
        {
          "indexed": false,
          "name": "_key",
          "type": "uint256[]"
        },
        {
          "indexed": false,
          "name": "_ipfs",
          "type": "string"
        }
      ],
      "name": "EvtRelease",
      "type": "event"
    },
    {
      "anonymous": false,
      "inputs": [
        {
          "indexed": false,
          "name": "_enc_msg",
          "type": "uint256[]"
        }
      ],
      "name": "EventEncMsg",
      "type": "event"
    },
    {
      "anonymous": false,
      "inputs": [
        {
          "indexed": false,
          "name": "_dec_msg",
          "type": "uint256[]"
        }
      ],
      "name": "EventDecMsg",
      "type": "event"
    },
    {
      "constant": false,
      "inputs": [
        {
          "name": "_unlockTime",
          "type": "uint256"
        },
        {
          "name": "_ipfs",
          "type": "string"
        },
        {
          "name": "_title",
          "type": "string"
        },
        {
          "name": "_description",
          "type": "string"
        },
        {
          "name": "_entryType",
          "type": "uint256"
        },
        {
          "name": "_file",
          "type": "uint256[]"
        },
        {
          "name": "_rand",
          "type": "uint256"
        }
      ],
      "name": "appendEntry",
      "outputs": [],
      "payable": false,
      "stateMutability": "nonpayable",
      "type": "function"
    },
    {
      "constant": false,
      "inputs": [
        {
          "name": "_id",
          "type": "uint256"
        }
      ],
      "name": "release",
      "outputs": [],
      "payable": false,
      "stateMutability": "nonpayable",
      "type": "function"
    },
    {
      "constant": true,
      "inputs": [
        {
          "name": "_id",
          "type": "uint256"
        }
      ],
      "name": "getIPFS",
      "outputs": [
        {
          "name": "x",
          "type": "string"
        }
      ],
      "payable": false,
      "stateMutability": "view",
      "type": "function"
    },
    {
      "constant": true,
      "inputs": [],
      "name": "getTotalentries",
      "outputs": [
        {
          "name": "x",
          "type": "uint256"
        }
      ],
      "payable": false,
      "stateMutability": "view",
      "type": "function"
    },
    {
      "constant": true,
      "inputs": [
        {
          "name": "_id",
          "type": "uint256"
        }
      ],
      "name": "getDescrip",
      "outputs": [
        {
          "name": "x",
          "type": "string"
        }
      ],
      "payable": false,
      "stateMutability": "view",
      "type": "function"
    },
    {
      "constant": true,
      "inputs": [
        {
          "name": "_id",
          "type": "uint256"
        }
      ],
      "name": "getTitle",
      "outputs": [
        {
          "name": "x",
          "type": "string"
        }
      ],
      "payable": false,
      "stateMutability": "view",
      "type": "function"
    },
    {
      "constant": true,
      "inputs": [
        {
          "name": "_id",
          "type": "uint256"
        }
      ],
      "name": "getUnlockTime",
      "outputs": [
        {
          "name": "x",
          "type": "uint256"
        }
      ],
      "payable": false,
      "stateMutability": "view",
      "type": "function"
    }
  ],
  "bytecode": "0x6060604052341561000f57600080fd5b336000806101000a81548173ffffffffffffffffffffffffffffffffffffffff021916908373ffffffffffffffffffffffffffffffffffffffff1602179055506114ef8061005e6000396000f30060606040526004361061008e576000357c0100000000000000000000000000000000000000000000000000000000900463ffffffff168063016aef0c1461009357806337bdc99b146100bc578063929a79b1146100df578063b21536e61461017b578063b30906d4146101b2578063dbfcc1aa146103c5578063e1e8974e14610503578063e4da28f31461059f575b600080fd5b341561009e57600080fd5b6100a661063b565b6040518082815260200191505060405180910390f35b34156100c757600080fd5b6100dd6004808035906020019091905050610645565b005b34156100ea57600080fd5b61010060048080359060200190919050506107ed565b6040518080602001828103825283818151815260200191508051906020019080838360005b83811015610140578082015181840152602081019050610125565b50505050905090810190601f16801561016d5780820380516001836020036101000a031916815260200191505b509250505060405180910390f35b341561018657600080fd5b61019c60048080359060200190919050506108ab565b6040518082815260200191505060405180910390f35b34156101bd57600080fd5b6101d360048080359060200190919050506108cb565b604051808881526020018781526020018673ffffffffffffffffffffffffffffffffffffffff1673ffffffffffffffffffffffffffffffffffffffff1681526020018060200180602001806020018581526020018481038452888181546001816001161561010002031660029004815260200191508054600181600116156101000203166002900480156102a85780601f1061027d576101008083540402835291602001916102a8565b820191906000526020600020905b81548152906001019060200180831161028b57829003601f168201915b505084810383528781815460018160011615610100020316600290048152602001915080546001816001161561010002031660029004801561032b5780601f106103005761010080835404028352916020019161032b565b820191906000526020600020905b81548152906001019060200180831161030e57829003601f168201915b50508481038252868181546001816001161561010002031660029004815260200191508054600181600116156101000203166002900480156103ae5780601f10610383576101008083540402835291602001916103ae565b820191906000526020600020905b81548152906001019060200180831161039157829003601f168201915b50509a505050505050505050505060405180910390f35b34156103d057600080fd5b610501600480803590602001909190803590602001908201803590602001908080601f0160208091040260200160405190810160405280939291908181526020018383808284378201915050505050509190803590602001908201803590602001908080601f0160208091040260200160405190810160405280939291908181526020018383808284378201915050505050509190803590602001908201803590602001908080601f016020809104026020016040519081016040528093929190818152602001838380828437820191505050505050919080359060200190919080359060200190820180359060200190808060200260200160405190810160405280939291908181526020018383602002808284378201915050505050509190803590602001909190505061092a565b005b341561050e57600080fd5b6105246004808035906020019091905050610af8565b6040518080602001828103825283818151815260200191508051906020019080838360005b83811015610564578082015181840152602081019050610549565b50505050905090810190601f1680156105915780820380516001836020036101000a031916815260200191505b509250505060405180910390f35b34156105aa57600080fd5b6105c06004808035906020019091905050610bb6565b6040518080602001828103825283818151815260200191508051906020019080838360005b838110156106005780820151818401526020810190506105e5565b50505050905090810190601f16801561062d5780820380516001836020036101000a031916815260200191505b509250505060405180910390f35b6000600354905090565b6001600082815260200190815260200160002060010154421015151561066a57600080fd5b61067381610c74565b506001600082815260200190815260200160002060020160009054906101000a900473ffffffffffffffffffffffffffffffffffffffff1673ffffffffffffffffffffffffffffffffffffffff167f165e5307c6e536e45dc51c5176c1ff5a4c6d17097af8fcfe564bff39355b1ac76002600084815260200190815260200160002060010160016000858152602001908152602001600020600301604051808060200180602001838103835285818154815260200191508054801561075757602002820191906000526020600020905b815481526020019060010190808311610743575b50508381038252848181546001816001161561010002031660029004815260200191508054600181600116156101000203166002900480156107da5780601f106107af576101008083540402835291602001916107da565b820191906000526020600020905b8154815290600101906020018083116107bd57829003601f168201915b505094505050505060405180910390a250565b6107f561135c565b600160008381526020019081526020016000206004018054600181600116156101000203166002900480601f01602080910402602001604051908101604052809291908181526020018280546001816001161561010002031660029004801561089f5780601f106108745761010080835404028352916020019161089f565b820191906000526020600020905b81548152906001019060200180831161088257829003601f168201915b50505050509050919050565b600060016000838152602001908152602001600020600101549050919050565b60016020528060005260406000206000915090508060000154908060010154908060020160009054906101000a900473ffffffffffffffffffffffffffffffffffffffff16908060030190806004019080600501908060060154905087565b60036000815480929190600101919050555061010060405190810160405280600354815260200142890181526020013373ffffffffffffffffffffffffffffffffffffffff16815260200187815260200186815260200185815260200184815260200161099a6003548585610f81565b815250600160006003548152602001908152602001600020600082015181600001556020820151816001015560408201518160020160006101000a81548173ffffffffffffffffffffffffffffffffffffffff021916908373ffffffffffffffffffffffffffffffffffffffff1602179055506060820151816003019080519060200190610a29929190611370565b506080820151816004019080519060200190610a46929190611370565b5060a0820151816005019080519060200190610a63929190611370565b5060c0820151816006015560e0820151816007019080519060200190610a8a9291906113f0565b5090505060408051908101604052806003548152602001610aad600354856112af565b815250600260006003548152602001908152602001600020600082015181600001556020820151816001019080519060200190610aeb9291906113f0565b5090505050505050505050565b610b0061135c565b600160008381526020019081526020016000206003018054600181600116156101000203166002900480601f016020809104026020016040519081016040528092919081815260200182805460018160011615610100020316600290048015610baa5780601f10610b7f57610100808354040283529160200191610baa565b820191906000526020600020905b815481529060010190602001808311610b8d57829003601f168201915b50505050509050919050565b610bbe61135c565b600160008381526020019081526020016000206005018054600181600116156101000203166002900480601f016020809104026020016040519081016040528092919081815260200182805460018160011615610100020316600290048015610c685780601f10610c3d57610100808354040283529160200191610c68565b820191906000526020600020905b815481529060010190602001808311610c4b57829003601f168201915b50505050509050919050565b610c7c61143d565b6000610c8661143d565b60006001600086815260200190815260200160002060070180549050925082604051805910610cb25750595b90808252806020026020018201604052509150600090505b82811015610efe5760006002600087815260200190815260200160002060010182815481101515610cf757fe5b9060005260206000209001546001600088815260200190815260200160002060070183815481101515610d2657fe5b906000526020600020900154031015610dbc57601a6002600087815260200190815260200160002060010182815481101515610d5e57fe5b9060005260206000209001546001600088815260200190815260200160002060070183815481101515610d8d57fe5b90600052602060002090015403018282815181101515610da957fe5b9060200190602002018181525050610ef1565b60006002600087815260200190815260200160002060010182815481101515610de157fe5b9060005260206000209001546001600088815260200190815260200160002060070183815481101515610e1057fe5b90600052602060002090015403101515610ea4576002600086815260200190815260200160002060010181815481101515610e4757fe5b9060005260206000209001546001600087815260200190815260200160002060070182815481101515610e7657fe5b906000526020600020900154038282815181101515610e9157fe5b9060200190602002018181525050610ef0565b6001600086815260200190815260200160002060070181815481101515610ec757fe5b9060005260206000209001548282815181101515610ee157fe5b90602001906020020181815250505b5b8080600101915050610cca565b7f64234031cc8315ff9efa6bbab1153ba837789b5ef76fa6c40f3703ea5cda4718826040518080602001828103825283818151815260200191508051906020019060200280838360005b83811015610f63578082015181840152602081019050610f48565b505050509050019250505060405180910390a1819350505050919050565b610f8961143d565b610f9161143d565b6000610f9b61143d565b60008693508351925082604051805910610fb25750595b9080825280602002602001820160405250915082604051805910610fd35750595b9080825280602002602001820160405250600260008a8152602001908152602001600020600101908051906020019061100d929190611451565b50600090505b8281101561121757601a8681151561102757fe5b06600260008a81526020019081526020016000206001018281548110151561104b57fe5b9060005260206000209001819055506041848281518110151561106a57fe5b906020019060200201511015801561109a5750605a848281518110151561108d57fe5b9060200190602002015111155b1561111757601a600260008a8152602001908152602001600020600101828154811015156110c457fe5b906000526020600020900154604186848151811015156110e057fe5b9060200190602002015103018115156110f557fe5b06828281518110151561110457fe5b906020019060200201818152505061120a565b6061848281518110151561112757fe5b90602001906020020151101580156111575750607a848281518110151561114a57fe5b9060200190602002015111155b156111d457601a600260008a81526020019081526020016000206001018281548110151561118157fe5b9060005260206000209001546061868481518110151561119d57fe5b9060200190602002015103018115156111b257fe5b0682828151811015156111c157fe5b9060200190602002018181525050611209565b83818151811015156111e257fe5b9060200190602002015182828151811015156111fa57fe5b90602001906020020181815250505b5b8080600101915050611013565b7f750140dd6dd0a247c337f9287fe60953be11e956932c03b131b31869c99a0967600160008a81526020019081526020016000206007016040518080602001828103825283818154815260200191508054801561129357602002820191906000526020600020905b81548152602001906001019080831161127f575b50509250505060405180910390a1819450505050509392505050565b6112b761143d565b60006112c161143d565b600084519250826040518059106112d55750595b90808252806020026020018201604052509150600090505b82811015611350576041600260008881526020019081526020016000206001018281548110151561131a57fe5b90600052602060002090015401828281518110151561133557fe5b906020019060200201818152505080806001019150506112ed565b81935050505092915050565b602060405190810160405280600081525090565b828054600181600116156101000203166002900490600052602060002090601f016020900481019282601f106113b157805160ff19168380011785556113df565b828001600101855582156113df579182015b828111156113de5782518255916020019190600101906113c3565b5b5090506113ec919061149e565b5090565b82805482825590600052602060002090810192821561142c579160200282015b8281111561142b578251825591602001919060010190611410565b5b509050611439919061149e565b5090565b602060405190810160405280600081525090565b82805482825590600052602060002090810192821561148d579160200282015b8281111561148c578251825591602001919060010190611471565b5b50905061149a919061149e565b5090565b6114c091905b808211156114bc5760008160009055506001016114a4565b5090565b905600a165627a7a72305820249758e148114090d4a72e14e37858a1585ee69d91f043660746427031c5374c0029",
  "source": "pragma solidity ^0.4.19;\n\nimport \"./ownable.sol\";\n\ncontract Amsterdam is ownable {\n\n  // custom types\n  struct Entry {\n    uint id;\n    uint unlockTime;\n    address owner;\n    string ipfs;\n    string title;\n    string descrip;\n    uint entryType;\n    uint[] enc_msg;\n  }\n\n  struct PK {\n      uint id;\n      uint[] key;\n  }\n\n  // state variables\n  mapping (uint => Entry) public entries;\n  mapping (uint => PK) private privateKeys;\n  uint counter;\n\n  // Event declaration\n  event EvtRelease(\n    address indexed _owner,\n    uint[] _key,\n    string _ipfs\n    );\n\n  event EventEncMsg(\n    uint[] _enc_msg\n    );\n\n  event EventDecMsg(\n    uint[] _dec_msg\n    );\n\n  function Amsterdam() public {\n  }\n\n  // add an entry to the blockchain\n  function appendEntry(uint _unlockTime, string _ipfs, string _title, string _description, uint _entryType, uint[] _file, uint _rand) public {\n    // a new entry\n    counter++;\n   // adding info to Entry struct\n   entries[counter] = Entry(\n       counter,\n       _unlockTime + block.timestamp,\n       msg.sender,\n       _ipfs,\n       _title,\n       _description,\n       _entryType,\n       encrypt(counter, _file, _rand)\n       );\n\n    privateKeys[counter] = PK(\n      counter,\n      get_key(counter, _file)\n      );\n  }\n\n  function encrypt(uint _id, uint[] _message, uint _rand) private returns(uint[]) {\n        uint[] memory mssg = _message;\n        uint len = mssg.length;\n        uint[] memory enc_msg = new uint[](len);\n        privateKeys[_id].key = new uint[](len);\n\n        for (uint i = 0; i < len; i++) {\n            privateKeys[_id].key[i] = _rand % 26;\n            if (mssg[i] >= 65 && mssg[i] <= 90)\n                enc_msg[i] =  (mssg[i] - 65 + privateKeys[_id].key[i]) % 26;\n            else if (mssg[i] >= 97 && mssg[i] <= 122)\n                enc_msg[i] =  (mssg[i] - 97 + privateKeys[_id].key[i]) % 26;\n            else\n                enc_msg[i] = mssg[i];\n        }\n\n        // tigger the event\n        EventEncMsg(entries[_id].enc_msg);\n\n        return(enc_msg);\n\n    }\n\n  function release(uint _id) public{\n    // check if it is time to release\n    require(now >= entries[_id].unlockTime);\n    decrypt(_id);\n    EvtRelease(entries[_id].owner, privateKeys[_id].key, entries[_id].ipfs);\n  }\n\n  function get_key(uint _id, uint[] _message) private view returns(uint[]){\n\n          uint len = _message.length;\n          uint[] memory temp = new uint[](len);\n\n          for (uint i = 0; i < len; i++) {\n              temp[i] = privateKeys[_id].key[i] + 65;\n          }\n          return temp;\n      }\n\n  function decrypt(uint _id) private returns(uint[]){\n    uint len = entries[_id].enc_msg.length;\n    uint[] memory dec_msg = new uint[](len);\n          for (uint i = 0; i < len; i++) {\n              if ((entries[_id].enc_msg[i] - privateKeys[_id].key[i]) < 0)\n                  dec_msg[i] =  entries[_id].enc_msg[i] - privateKeys[_id].key[i] + 26;\n              else if ((entries[_id].enc_msg[i] - privateKeys[_id].key[i]) >= 0)\n                  dec_msg[i] =  entries[_id].enc_msg[i] - privateKeys[_id].key[i];\n              else\n                  dec_msg[i] =  entries[_id].enc_msg[i];\n          }\n          // trigger the event\n          EventDecMsg(dec_msg);\n\n          return(dec_msg);\n      }\n\n\n\n\n  // some getter functions\n\n  function getIPFS(uint _id) constant public returns (string x) {\n      return entries[_id].ipfs;\n  }\n\n  function getTotalentries() public view returns (uint x){\n      return counter;\n  }\n\n  function getDescrip(uint _id) constant public returns (string x) {\n    return entries[_id].descrip;\n  }\n\n  function getTitle(uint _id) constant public returns (string x) {\n      return entries[_id].title;\n  }\n\n  function getUnlockTime(uint _id) constant public returns(uint x) {\n      return entries[_id].unlockTime;\n  }\n\n}\n\n",
  "sourcePath": "/Users/fellow/blockchain/EminenceAlignment/client/contracts/Amsterdam.sol",
  "compiler": {
    "name": "solc",
    "version": "0.4.19+commit.c4cbbb05.Emscripten.clang"
  },
  "schemaVersion": "2.0.0",
  "updatedAt": "2018-04-29T02:57:25.794Z"
}