{
  "contractName": "Amsterdam",
  "abi": [
    {
      "constant": true,
      "inputs": [
        {
          "name": "",
          "type": "uint256"
        }
      ],
      "name": "entries",
      "outputs": [
        {
          "name": "id",
          "type": "uint256"
        },
        {
          "name": "unlockTime",
          "type": "uint256"
        },
        {
          "name": "owner",
          "type": "address"
        },
        {
          "name": "ipfs",
          "type": "string"
        },
        {
          "name": "title",
          "type": "string"
        },
        {
          "name": "descrip",
          "type": "string"
        },
        {
          "name": "entryType",
          "type": "uint256"
        }
      ],
      "payable": false,
      "stateMutability": "view",
      "type": "function"
    },
    {
      "inputs": [],
      "payable": false,
      "stateMutability": "nonpayable",
      "type": "constructor"
    },
    {
      "anonymous": false,
      "inputs": [
        {
          "indexed": true,
          "name": "_owner",
          "type": "address"
        },
        {
          "indexed": false,
          "name": "_key",
          "type": "uint256[]"
        },
        {
          "indexed": false,
          "name": "_ipfs",
          "type": "string"
        }
      ],
      "name": "EvtRelease",
      "type": "event"
    },
    {
      "anonymous": false,
      "inputs": [
        {
          "indexed": false,
          "name": "_enc_msg",
          "type": "uint256[]"
        }
      ],
      "name": "EventEncMsg",
      "type": "event"
    },
    {
      "anonymous": false,
      "inputs": [
        {
          "indexed": false,
          "name": "_dec_msg",
          "type": "uint256[]"
        }
      ],
      "name": "EventDecMsg",
      "type": "event"
    },
    {
      "constant": false,
      "inputs": [
        {
          "name": "_unlockTime",
          "type": "uint256"
        },
        {
          "name": "_ipfs",
          "type": "string"
        },
        {
          "name": "_title",
          "type": "string"
        },
        {
          "name": "_description",
          "type": "string"
        },
        {
          "name": "_entryType",
          "type": "uint256"
        },
        {
          "name": "_file",
          "type": "uint256[]"
        },
        {
          "name": "_rand",
          "type": "uint256"
        }
      ],
      "name": "appendEntry",
      "outputs": [],
      "payable": false,
      "stateMutability": "nonpayable",
      "type": "function"
    },
    {
      "constant": false,
      "inputs": [
        {
          "name": "_id",
          "type": "uint256"
        }
      ],
      "name": "release",
      "outputs": [],
      "payable": false,
      "stateMutability": "nonpayable",
      "type": "function"
    },
    {
      "constant": false,
      "inputs": [
        {
          "name": "_id",
          "type": "uint256"
        }
      ],
      "name": "eventTestRelease",
      "outputs": [],
      "payable": false,
      "stateMutability": "nonpayable",
      "type": "function"
    },
    {
      "constant": false,
      "inputs": [
        {
          "name": "_enc_msg",
          "type": "uint256[]"
        }
      ],
      "name": "eventTestEnc",
      "outputs": [],
      "payable": false,
      "stateMutability": "nonpayable",
      "type": "function"
    },
    {
      "constant": false,
      "inputs": [
        {
          "name": "_dec_msg",
          "type": "uint256[]"
        }
      ],
      "name": "eventTestDec",
      "outputs": [],
      "payable": false,
      "stateMutability": "nonpayable",
      "type": "function"
    },
    {
      "constant": true,
      "inputs": [
        {
          "name": "_id",
          "type": "uint256"
        }
      ],
      "name": "getIPFS",
      "outputs": [
        {
          "name": "x",
          "type": "string"
        }
      ],
      "payable": false,
      "stateMutability": "view",
      "type": "function"
    },
    {
      "constant": true,
      "inputs": [],
      "name": "getTotalentries",
      "outputs": [
        {
          "name": "x",
          "type": "uint256"
        }
      ],
      "payable": false,
      "stateMutability": "view",
      "type": "function"
    },
    {
      "constant": true,
      "inputs": [
        {
          "name": "_id",
          "type": "uint256"
        }
      ],
      "name": "getDescrip",
      "outputs": [
        {
          "name": "x",
          "type": "string"
        }
      ],
      "payable": false,
      "stateMutability": "view",
      "type": "function"
    },
    {
      "constant": true,
      "inputs": [
        {
          "name": "_id",
          "type": "uint256"
        }
      ],
      "name": "getTitle",
      "outputs": [
        {
          "name": "x",
          "type": "string"
        }
      ],
      "payable": false,
      "stateMutability": "view",
      "type": "function"
    },
    {
      "constant": true,
      "inputs": [
        {
          "name": "_id",
          "type": "uint256"
        }
      ],
      "name": "getUnlockTime",
      "outputs": [
        {
          "name": "x",
          "type": "uint256"
        }
      ],
      "payable": false,
      "stateMutability": "view",
      "type": "function"
    }
  ],
  "bytecode": "0x608060405234801561001057600080fd5b50336000806101000a81548173ffffffffffffffffffffffffffffffffffffffff021916908373ffffffffffffffffffffffffffffffffffffffff160217905550611a14806100606000396000f3006080604052600436106100af576000357c0100000000000000000000000000000000000000000000000000000000900463ffffffff168063016aef0c146100b45780631293de7b146100df578063301f6c9b1461014557806337bdc99b146101ab578063929a79b1146101d8578063b21536e61461027e578063b30906d4146102bf578063b8a6cb3514610485578063dbfcc1aa146104b2578063e1e8974e14610608578063e4da28f3146106ae575b600080fd5b3480156100c057600080fd5b506100c9610754565b6040518082815260200191505060405180910390f35b3480156100eb57600080fd5b506101436004803603810190808035906020019082018035906020019080806020026020016040519081016040528093929190818152602001838360200280828437820191505050505050919291929050505061075e565b005b34801561015157600080fd5b506101a9600480360381019080803590602001908201803590602001908080602002602001604051908101604052809392919081815260200183836020028082843782019150505050505091929192905050506107d9565b005b3480156101b757600080fd5b506101d660048036038101908080359060200190929190505050610854565b005b3480156101e457600080fd5b50610203600480360381019080803590602001909291905050506109fc565b6040518080602001828103825283818151815260200191508051906020019080838360005b83811015610243578082015181840152602081019050610228565b50505050905090810190601f1680156102705780820380516001836020036101000a031916815260200191505b509250505060405180910390f35b34801561028a57600080fd5b506102a960048036038101908080359060200190929190505050610ab4565b6040518082815260200191505060405180910390f35b3480156102cb57600080fd5b506102ea60048036038101908080359060200190929190505050610ad4565b604051808881526020018781526020018673ffffffffffffffffffffffffffffffffffffffff1673ffffffffffffffffffffffffffffffffffffffff168152602001806020018060200180602001858152602001848103845288818151815260200191508051906020019080838360005b8381101561037657808201518184015260208101905061035b565b50505050905090810190601f1680156103a35780820380516001836020036101000a031916815260200191505b50848103835287818151815260200191508051906020019080838360005b838110156103dc5780820151818401526020810190506103c1565b50505050905090810190601f1680156104095780820380516001836020036101000a031916815260200191505b50848103825286818151815260200191508051906020019080838360005b83811015610442578082015181840152602081019050610427565b50505050905090810190601f16801561046f5780820380516001836020036101000a031916815260200191505b509a505050505050505050505060405180910390f35b34801561049157600080fd5b506104b060048036038101908080359060200190929190505050610cfe565b005b3480156104be57600080fd5b5061060660048036038101908080359060200190929190803590602001908201803590602001908080601f0160208091040260200160405190810160405280939291908181526020018383808284378201915050505050509192919290803590602001908201803590602001908080601f0160208091040260200160405190810160405280939291908181526020018383808284378201915050505050509192919290803590602001908201803590602001908080601f0160208091040260200160405190810160405280939291908181526020018383808284378201915050505050509192919290803590602001909291908035906020019082018035906020019080806020026020016040519081016040528093929190818152602001838360200280828437820191505050505050919291929080359060200190929190505050610e77565b005b34801561061457600080fd5b5061063360048036038101908080359060200190929190505050611045565b6040518080602001828103825283818151815260200191508051906020019080838360005b83811015610673578082015181840152602081019050610658565b50505050905090810190601f1680156106a05780820380516001836020036101000a031916815260200191505b509250505060405180910390f35b3480156106ba57600080fd5b506106d9600480360381019080803590602001909291905050506110fd565b6040518080602001828103825283818151815260200191508051906020019080838360005b838110156107195780820151818401526020810190506106fe565b50505050905090810190601f1680156107465780820380516001836020036101000a031916815260200191505b509250505060405180910390f35b6000600354905090565b7f750140dd6dd0a247c337f9287fe60953be11e956932c03b131b31869c99a0967816040518080602001828103825283818151815260200191508051906020019060200280838360005b838110156107c35780820151818401526020810190506107a8565b505050509050019250505060405180910390a150565b7f64234031cc8315ff9efa6bbab1153ba837789b5ef76fa6c40f3703ea5cda4718816040518080602001828103825283818151815260200191508051906020019060200280838360005b8381101561083e578082015181840152602081019050610823565b505050509050019250505060405180910390a150565b6001600082815260200190815260200160002060010154421015151561087957600080fd5b610882816111b5565b506001600082815260200190815260200160002060020160009054906101000a900473ffffffffffffffffffffffffffffffffffffffff1673ffffffffffffffffffffffffffffffffffffffff167f165e5307c6e536e45dc51c5176c1ff5a4c6d17097af8fcfe564bff39355b1ac76002600084815260200190815260200160002060010160016000858152602001908152602001600020600301604051808060200180602001838103835285818154815260200191508054801561096657602002820191906000526020600020905b815481526020019060010190808311610952575b50508381038252848181546001816001161561010002031660029004815260200191508054600181600116156101000203166002900480156109e95780601f106109be576101008083540402835291602001916109e9565b820191906000526020600020905b8154815290600101906020018083116109cc57829003601f168201915b505094505050505060405180910390a250565b6060600160008381526020019081526020016000206004018054600181600116156101000203166002900480601f016020809104026020016040519081016040528092919081815260200182805460018160011615610100020316600290048015610aa85780601f10610a7d57610100808354040283529160200191610aa8565b820191906000526020600020905b815481529060010190602001808311610a8b57829003601f168201915b50505050509050919050565b600060016000838152602001908152602001600020600101549050919050565b60016020528060005260406000206000915090508060000154908060010154908060020160009054906101000a900473ffffffffffffffffffffffffffffffffffffffff1690806003018054600181600116156101000203166002900480601f016020809104026020016040519081016040528092919081815260200182805460018160011615610100020316600290048015610bb25780601f10610b8757610100808354040283529160200191610bb2565b820191906000526020600020905b815481529060010190602001808311610b9557829003601f168201915b505050505090806004018054600181600116156101000203166002900480601f016020809104026020016040519081016040528092919081815260200182805460018160011615610100020316600290048015610c505780601f10610c2557610100808354040283529160200191610c50565b820191906000526020600020905b815481529060010190602001808311610c3357829003601f168201915b505050505090806005018054600181600116156101000203166002900480601f016020809104026020016040519081016040528092919081815260200182805460018160011615610100020316600290048015610cee5780601f10610cc357610100808354040283529160200191610cee565b820191906000526020600020905b815481529060010190602001808311610cd157829003601f168201915b5050505050908060060154905087565b6001600082815260200190815260200160002060020160009054906101000a900473ffffffffffffffffffffffffffffffffffffffff1673ffffffffffffffffffffffffffffffffffffffff167f165e5307c6e536e45dc51c5176c1ff5a4c6d17097af8fcfe564bff39355b1ac760026000848152602001908152602001600020600101600160008581526020019081526020016000206003016040518080602001806020018381038352858181548152602001915080548015610de157602002820191906000526020600020905b815481526020019060010190808311610dcd575b5050838103825284818154600181600116156101000203166002900481526020019150805460018160011615610100020316600290048015610e645780601f10610e3957610100808354040283529160200191610e64565b820191906000526020600020905b815481529060010190602001808311610e4757829003601f168201915b505094505050505060405180910390a250565b60036000815480929190600101919050555061010060405190810160405280600354815260200142890181526020013373ffffffffffffffffffffffffffffffffffffffff168152602001878152602001868152602001858152602001848152602001610ee760035485856114be565b815250600160006003548152602001908152602001600020600082015181600001556020820151816001015560408201518160020160006101000a81548173ffffffffffffffffffffffffffffffffffffffff021916908373ffffffffffffffffffffffffffffffffffffffff1602179055506060820151816003019080519060200190610f769291906118a9565b506080820151816004019080519060200190610f939291906118a9565b5060a0820151816005019080519060200190610fb09291906118a9565b5060c0820151816006015560e0820151816007019080519060200190610fd7929190611929565b5090505060408051908101604052806003548152602001610ffa600354856117f8565b815250600260006003548152602001908152602001600020600082015181600001556020820151816001019080519060200190611038929190611929565b5090505050505050505050565b6060600160008381526020019081526020016000206003018054600181600116156101000203166002900480601f0160208091040260200160405190810160405280929190818152602001828054600181600116156101000203166002900480156110f15780601f106110c6576101008083540402835291602001916110f1565b820191906000526020600020905b8154815290600101906020018083116110d457829003601f168201915b50505050509050919050565b6060600160008381526020019081526020016000206005018054600181600116156101000203166002900480601f0160208091040260200160405190810160405280929190818152602001828054600181600116156101000203166002900480156111a95780601f1061117e576101008083540402835291602001916111a9565b820191906000526020600020905b81548152906001019060200180831161118c57829003601f168201915b50505050509050919050565b606060006060600060016000868152602001908152602001600020600701805490509250826040519080825280602002602001820160405280156112085781602001602082028038833980820191505090505b509150600090505b8281101561143b576000600260008781526020019081526020016000206001018281548110151561123d57fe5b9060005260206000200154600160008881526020019081526020016000206007018381548110151561126b57fe5b90600052602060002001540310156112fe57601a60026000878152602001908152602001600020600101828154811015156112a257fe5b906000526020600020015460016000888152602001908152602001600020600701838154811015156112d057fe5b9060005260206000200154030182828151811015156112eb57fe5b906020019060200201818152505061142e565b6000600260008781526020019081526020016000206001018281548110151561132357fe5b9060005260206000200154600160008881526020019081526020016000206007018381548110151561135157fe5b9060005260206000200154031015156113e257600260008681526020019081526020016000206001018181548110151561138757fe5b906000526020600020015460016000878152602001908152602001600020600701828154811015156113b557fe5b90600052602060002001540382828151811015156113cf57fe5b906020019060200201818152505061142d565b600160008681526020019081526020016000206007018181548110151561140557fe5b9060005260206000200154828281518110151561141e57fe5b90602001906020020181815250505b5b8080600101915050611210565b7f64234031cc8315ff9efa6bbab1153ba837789b5ef76fa6c40f3703ea5cda4718826040518080602001828103825283818151815260200191508051906020019060200280838360005b838110156114a0578082015181840152602081019050611485565b505050509050019250505060405180910390a1819350505050919050565b60608060006060600086935083519250826040519080825280602002602001820160405280156114fd5781602001602082028038833980820191505090505b5091508260405190808252806020026020018201604052801561152f5781602001602082028038833980820191505090505b50600260008a81526020019081526020016000206001019080519060200190611559929190611976565b50600090505b8281101561176057601a8681151561157357fe5b06600260008a81526020019081526020016000206001018281548110151561159757fe5b9060005260206000200181905550604184828151811015156115b557fe5b90602001906020020151101580156115e55750605a84828151811015156115d857fe5b9060200190602002015111155b1561166157601a600260008a81526020019081526020016000206001018281548110151561160f57fe5b90600052602060002001546041868481518110151561162a57fe5b90602001906020020151030181151561163f57fe5b06828281518110151561164e57fe5b9060200190602002018181525050611753565b6061848281518110151561167157fe5b90602001906020020151101580156116a15750607a848281518110151561169457fe5b9060200190602002015111155b1561171d57601a600260008a8152602001908152602001600020600101828154811015156116cb57fe5b9060005260206000200154606186848151811015156116e657fe5b9060200190602002015103018115156116fb57fe5b06828281518110151561170a57fe5b9060200190602002018181525050611752565b838181518110151561172b57fe5b90602001906020020151828281518110151561174357fe5b90602001906020020181815250505b5b808060010191505061155f565b7f750140dd6dd0a247c337f9287fe60953be11e956932c03b131b31869c99a0967600160008a8152602001908152602001600020600701604051808060200182810382528381815481526020019150805480156117dc57602002820191906000526020600020905b8154815260200190600101908083116117c8575b50509250505060405180910390a1819450505050509392505050565b606060006060600084519250826040519080825280602002602001820160405280156118335781602001602082028038833980820191505090505b509150600090505b8281101561189d576041600260008881526020019081526020016000206001018281548110151561186857fe5b906000526020600020015401828281518110151561188257fe5b9060200190602002018181525050808060010191505061183b565b81935050505092915050565b828054600181600116156101000203166002900490600052602060002090601f016020900481019282601f106118ea57805160ff1916838001178555611918565b82800160010185558215611918579182015b828111156119175782518255916020019190600101906118fc565b5b50905061192591906119c3565b5090565b828054828255906000526020600020908101928215611965579160200282015b82811115611964578251825591602001919060010190611949565b5b50905061197291906119c3565b5090565b8280548282559060005260206000209081019282156119b2579160200282015b828111156119b1578251825591602001919060010190611996565b5b5090506119bf91906119c3565b5090565b6119e591905b808211156119e15760008160009055506001016119c9565b5090565b905600a165627a7a723058209aab50ba100fffb72f17bc9a1ee2e617b5561c89d1120b48de81c5e5bad54e210029",
  "source": "pragma solidity ^0.4.19;\n\nimport \"./ownable.sol\";\n\ncontract Amsterdam is ownable {\n\n  // custom types\n  struct Entry {\n    uint id;\n    uint unlockTime;\n    address owner;\n    string ipfs;\n    string title;\n    string descrip;\n    uint entryType;\n    uint[] enc_msg;\n  }\n\n  struct PK {\n      uint id;\n      uint[] key;\n  }\n\n  // state variables\n  mapping (uint => Entry) public entries;\n  mapping (uint => PK) private privateKeys;\n  uint counter;\n\n  // Event declaration\n  event EvtRelease(\n    address indexed _owner,\n    uint[] _key,\n    string _ipfs\n    );\n\n  event EventEncMsg(\n    uint[] _enc_msg\n    );\n\n  event EventDecMsg(\n    uint[] _dec_msg\n    );\n\n  function Amsterdam() public {\n  }\n\n  // add an entry to the blockchain\n  function appendEntry(uint _unlockTime, string _ipfs, string _title, string _description, uint _entryType, uint[] _file, uint _rand) public {\n    // a new entry\n    counter++;\n   // adding info to Entry struct\n   entries[counter] = Entry(\n       counter,\n       _unlockTime + block.timestamp,\n       msg.sender,\n       _ipfs,\n       _title,\n       _description,\n       _entryType,\n       encrypt(counter, _file, _rand)\n       );\n\n    privateKeys[counter] = PK(\n      counter,\n      get_key(counter, _file)\n      );\n  }\n\n  function encrypt(uint _id, uint[] _message, uint _rand) private returns(uint[]) {\n        uint[] memory mssg = _message;\n        uint len = mssg.length;\n        uint[] memory enc_msg = new uint[](len);\n        privateKeys[_id].key = new uint[](len);\n\n        for (uint i = 0; i < len; i++) {\n            privateKeys[_id].key[i] = _rand % 26;\n            if (mssg[i] >= 65 && mssg[i] <= 90)\n                enc_msg[i] =  (mssg[i] - 65 + privateKeys[_id].key[i]) % 26;\n            else if (mssg[i] >= 97 && mssg[i] <= 122)\n                enc_msg[i] =  (mssg[i] - 97 + privateKeys[_id].key[i]) % 26;\n            else\n                enc_msg[i] = mssg[i];\n        }\n\n        // tigger the event\n        EventEncMsg(entries[_id].enc_msg);\n\n        return(enc_msg);\n\n    }\n\n  function release(uint _id) public{\n    // check if it is time to release\n    require(now >= entries[_id].unlockTime);\n    decrypt(_id);\n    EvtRelease(entries[_id].owner, privateKeys[_id].key, entries[_id].ipfs);\n  }\n\n  function get_key(uint _id, uint[] _message) private view returns(uint[]){\n\n          uint len = _message.length;\n          uint[] memory temp = new uint[](len);\n\n          for (uint i = 0; i < len; i++) {\n              temp[i] = privateKeys[_id].key[i] + 65;\n          }\n          return temp;\n      }\n\n  function decrypt(uint _id) private returns(uint[]){\n    uint len = entries[_id].enc_msg.length;\n    uint[] memory dec_msg = new uint[](len);\n          for (uint i = 0; i < len; i++) {\n              if ((entries[_id].enc_msg[i] - privateKeys[_id].key[i]) < 0)\n                  dec_msg[i] =  entries[_id].enc_msg[i] - privateKeys[_id].key[i] + 26;\n              else if ((entries[_id].enc_msg[i] - privateKeys[_id].key[i]) >= 0)\n                  dec_msg[i] =  entries[_id].enc_msg[i] - privateKeys[_id].key[i];\n              else\n                  dec_msg[i] =  entries[_id].enc_msg[i];\n          }\n          // trigger the event\n          EventDecMsg(dec_msg);\n\n          return(dec_msg);\n      }\n\n\n  function eventTestRelease(uint _id) public {\n    EvtRelease(entries[_id].owner, privateKeys[_id].key, entries[_id].ipfs);\n  }\n\n  function eventTestEnc(uint[] _enc_msg) public {\n    EventEncMsg(_enc_msg);\n  }\n\n  function eventTestDec(uint[] _dec_msg) public {\n    EventDecMsg(_dec_msg);\n  } \n\n\n  // some getter functions\n\n  function getIPFS(uint _id) constant public returns (string x) {\n      return entries[_id].ipfs;\n  }\n\n  function getTotalentries() public view returns (uint x){\n      return counter;\n  }\n\n  function getDescrip(uint _id) constant public returns (string x) {\n    return entries[_id].descrip;\n  }\n\n  function getTitle(uint _id) constant public returns (string x) {\n      return entries[_id].title;\n  }\n\n  function getUnlockTime(uint _id) constant public returns(uint x) {\n      return entries[_id].unlockTime;\n  }\n\n}\n\n",
  "sourcePath": "/Users/Skylar/Developer/Hackital/memoir/client/contracts/Amsterdam.sol",
  "compiler": {
    "name": "solc",
    "version": "0.4.23+commit.124ca40d.Emscripten.clang"
  },
  "schemaVersion": "2.0.0",
  "updatedAt": "2018-04-29T02:50:03.439Z"
}